:100000000C9434000C9451000C9451000C94510049
:100010000C9451000C9451000C9451000C9451001C
:100020000C9451000C9451000C9451000C9451000C
:100030000C9451000C9451000C9451000C945100FC
:100040000C9451000C9451000C9451000C945100EC
:100050000C9451000C9451000C9451000C945100DC
:100060000C9451000C94510011241FBECFEFD4E02A
:10007000DEBFCDBF11E0A0E0B1E0EEE5F2E002C0EE
:1000800005900D92A230B107D9F711E0A2E0B1E0DE
:1000900001C01D92A230B107E1F70E9453000C94F9
:1000A0002E010C940000A0E0B0E0E9E5F0E00C9433
:1000B0001A0183E084B99091000195B91AB88FEFC5
:1000C0008BB917B88FE388B9CC24DD247601F3E02F
:1000D000AF2EA92A1A9907C0E0E1CE2EE7E2DE2E64
:1000E000E12CF12C05C0C114D104E104F10451F05C
:1000F0000894C108D108E108F10803B1047083B184
:10010000847084C0B9B189B169B149B126B1E6B191
:1001100016B1A6B106B1B17099278270907095950D
:100120008795B827332724703070359527953595F6
:100130002795B22755274870507023E0559547956D
:100140002A95E1F7772764707070759567957595B6
:1001500067954627FF27E870F07083E0F595E795EF
:100160008A95E1F74E27B427C1E0D0E01C27117033
:1001700080E0A1FF81E0812B90E005FF91E0082F56
:10018000092B0B2B29B189B169B1A9B146B1E6B1EF
:1001900016B1B6B1B6B033272071307074E0359522
:1001A00027957A95E1F799278072907055E095959B
:1001B00087955A95E1F72827552744705070559533
:1001C0004795559547952427AA1FAA27AA1F772741
:1001D0006074707096E0759567959A95E1F7A6271B
:1001E000FF27E870F07083E0F595E7958A95E1F7D1
:1001F000AE272A271C27117080E0B1FF81E0812BF8
:1002000090E0B4FE91E0892B822B880FA5B80023E3
:1002100011F0289A01C02898882311F0299A5ACF02
:10022000299858CF2F923F924F925F926F927F9270
:100230008F929F92AF92BF92CF92DF92EF92FF92F6
:100240000F931F93CF93DF93CDB7DEB7CA1BDB0BA2
:0E0250000FB6F894DEBF0FBECDBF0994FFCFEE
:02025E0004009A
:00000001FF
