:100000000EC028C027C026C025C024C023C022C0DF
:1000100021C020C01FC01EC01DC01CC01BC0112499
:100020001FBECFE5D2E0DEBFCDBF10E0A0E6B0E05E
:10003000EEE0F4E003C0C89531960D92AA36B10700
:10004000D1F710E0AAE6B0E001C01D92A537B107D4
:10005000E1F72BC0D5CF0000000000000000000039
:1000600000000000000008952DE63EE446EC51E457
:1000700060916600709167008091680090916900BE
:1000800084D1675C7F4C8F4F9F4F60936600709365
:1000900067008093680090936900682F792F882704
:1000A00099277F77807090700895EF92FF920F9359
:1000B0001F9388E187BB83E088BB80916B009091A0
:1000C0006C00019690936C0080936B00209160000F
:1000D000309161008217930730F110926C001092FA
:1000E0006B0083E090916A00891B80936A00BCDFFB
:1000F000209160003091610060FF03C02F5F3F4F8F
:1001000002C0215030403093610020936000809104
:10011000600090916100805D974028F0A5DF7093AA
:1001200061006093600080916D0090916E00019677
:1001300090936E0080936D00209162003091630077
:1001400082179307B0F110926E0010926D0083E059
:1001500090916A00891B80936A0086DF209162007B
:100160003091630060FF03C02F5F3F4F02C02150FA
:100170003040309363002093620080916200909140
:100180006300892B51F470DF2AE030E040E050E05A
:1001900017D13093630020936200809162009091A8
:1001A0006300805D974028F05FDF70936300609389
:1001B0006200B09959C0E0906F00F0907000002785
:1001C000112752DF28EE33E040E050E0F9D0E2168C
:1001D000F3060407150708F447C08091600090916A
:1001E000610001969093610080936000109270000E
:1001F00010926F008091710090917200019690931F
:100200007200809371000B9778F510927200109233
:10021000710019C080916F009091700001969093C9
:10022000700080936F0020DF63707070807090703A
:10023000611571058105910519F088B3886102C0C7
:1002400088B3877E88BBE0906F00F0907000002735
:1002500011270ADF28EE33E040E050E0B1D0E2168B
:10026000F30604071507B0F2209173003091740073
:100270002F5F3F4F309374002093730040916400D0
:1002800050916500952F842F885E934082179307C5
:1002900050F080916A00882319F088B3886102C009
:1002A00088B3877E88BB2417350708F406CF1092E1
:1002B00074001092730001CF09C00000000000001C
:1002C0000000000000000000000001970097A9F75F
:1002D000089557C024E630E0000000000000000050
:1002E000000000000000000000000000000000000E
:1002F00000000000000000000000000000000000FE
:1003000000000000000000000000000000000000ED
:1003100000000000000000000000000000000000DD
:1003200000000000000000000000000000000000CD
:1003300000000000000000000000000000000000BD
:1003400000000000000000000000000000000000AD
:10035000000000000000000000000000000000009D
:10036000000000000000000000000000000000008D
:1003700000000000000000002150304009F0ACCF28
:100380000197009709F0A6CF0895FF27EE27BB2716
:10039000AA2760FF04C0A20FB31FE41FF51F220F9E
:1003A000331F441F551F969587957795679589F755
:1003B0000097760771F79F2F8E2F7B2F6A2F089556
:1003C000A1E21A2EAA1BBB1BEA2FFB2F0DC0AA1FEE
:1003D000BB1FEE1FFF1FA217B307E407F50720F0AE
:1003E000A21BB30BE40BF50B661F771F881F991F29
:1003F0001A9469F76095709580959095262F372F00
:0E040000482F592F6A2F7B2F8E2F9F2F089584
:0A040E00AC0DAC0D50C3010000005E
:00000001FF
