:100000000EC028C027C026C025C024C023C022C0DF
:1000100021C020C01FC01EC01DC01CC01BC0112499
:100020001FBECFE5D2E0DEBFCDBF10E0A0E6B0E05E
:10003000E8E8F2E003C0C89531960D92A237B10707
:10004000D1F710E0A2E7B0E001C01D92A637B107DA
:10005000E1F722C0D5CF2DE63EE446EC51E46091B5
:100060006E0070916F008091700090917100F1D0DE
:10007000675C7F4C8F4F9F4F60936E0070936F0053
:100080008093700090937100682F792F88279927AB
:100090007F7780709070089588E187BB83E088BB8C
:1000A000B09937C080916000909161000197909362
:1000B00061008093600080916200909163000196DE
:1000C0009093630080936200C6DF607273707093D8
:1000D0006B0060936A00BFDF637E717070936D0088
:1000E00060936C00809160009091610097FF04C064
:1000F0001092610010926000809162009091630004
:10010000855F914034F084EF91E090936300809399
:100110006200B19911C09FDF6A7F707070936100B7
:100120006093600098DF6A7F7070709363006093E3
:10013000620081E090E002C08FEF9FEF9093650036
:100140008093640020916000309161008091720082
:10015000909173008217930794F088B398E08927F1
:1001600088BB10927300109272008091640090918D
:100170006500280F391F30936100209360002091A3
:100180006200309163008091740090917500821735
:10019000930794F088B390E1892788BB109275008B
:1001A000109274008091640090916500281B390BB7
:1001B00030936300209362002091600030916100D1
:1001C0008091660090916700281739071CF4121679
:1001D00013067CF080916A0090916B00909361000F
:1001E0008093600038DF687E73707093690060935D
:1001F00068002091620030916300809168009091C6
:100200006900281739071CF4121613067CF023DF47
:10021000687E7370709367006093660080916C00D5
:1002200090916D00909363008093620080917200C2
:100230009091730001969093730080937200809167
:1002400074009091750001969093750080937400EE
:1002500027CFFF27EE27BB27AA2760FF04C0A20FE6
:10026000B31FE41FF51F220F331F441F551F969520
:1002700087957795679589F70097760771F79F2F90
:080280008E2F7B2F6A2F0895D9
:10028800F401F401FFFF401F401FF401F4010100D5
:02029800000064
:00000001FF
