:100000000EC028C027C026C025C024C023C022C0DF
:1000100021C020C01FC01EC01DC01CC01BC0112499
:100020001FBECFE5D2E0DEBFCDBF10E0A0E6B0E05E
:10003000E0E1F6E003C0C89531960D92A436B10711
:10004000D1F710E0A4E6B0E001C01D92A436B107DC
:10005000E1F72BC0D5CF0000000000000000000039
:1000600000000000000008952DE63EE446EC51E457
:1000700060916000709161008091620090916300D6
:1000800085D2675C7F4C8F4F9F4F60936000709369
:1000900061008093620090936300682F792F882716
:1000A00099277F778070907008952F923F924F929A
:1000B0005F926F927F928F929F92AF92BF92CF92F8
:1000C000DF92EF92FF920F931F93CF93DF93CDB701
:1000D000DEB7AA970FB6F894DEBF0FBECDBF88E19A
:1000E00087BB83E088BB41E050E058A74FA31EA226
:1000F0001DA21CA21BA278EEA72E73E0B72E1AA297
:1001000019A260E5C62E63ECD62E18A21F8E20E63B
:100110003AEE1E8E1D8E1C8E1B8E5A8F498F188EA6
:100120001F8A8824992484EF91E09E8B8D8B1C8AF2
:100130001B8A50E1652E57E2752E1A8A198A00E44F
:100140001CE9EE24FF24A0E0B0E041E0242E312C95
:10015000188A1F861E861D869C878B871A8619869D
:10016000E0E1F7E2F887EF831E821D821C830B8398
:100170001A821982442455240CC04B8D5C8D4F5F2C
:100180005F4F5C8F4B8FA9A5BAA511960894411CAF
:10019000511C8D8D9E8D8217930750F081E090E069
:1001A000EBA1FCA18E1B9F0B9CA38BA31E8E1D8E0F
:1001B0004B8D5C8D4530510538F08D8D9E8D0196AF
:1001C0009E8F8D8F1C8E1B8EEBA1FCA1EF2B71F1EE
:1001D0004F8D58A14C155D0550F081E090E0EDA1E8
:1001E000FEA18E1B9F0B9EA38DA318A21F8E4F8D69
:1001F00058A14F5F5F4F58A34F8F8DA19EA1892BB0
:10020000A9F0E9A1FAA1EA15FB0550F081E090E020
:100210004FA158A5841B950B98A78FA31AA219A2CA
:1002200089A19AA101969AA389A302C018A61FA228
:10023000E016F10640F081E090E088199909882ED7
:10024000992EEE24FF24A530B10528F00894E11C76
:10025000F11CA0E0B0E01196BAA7A9A781149104FF
:1002600081F1E989FA89E615F70550F081E090E01F
:100270004F89588D841B950B988F8F8B1A8A198AFA
:1002800089899A8901969A8B898BEF89F88DEF2B52
:10029000C1F04B895C898D899E894817590750F0B8
:1002A00081E090E0E98DFA8D8E1B9F0B9A8F898FEC
:1002B0001C8A1B8A4B895C894F5F5F4F5C8B4B8B21
:1002C00002C01A8E198EE016F10640F081E090E02F
:1002D00088199909882E992EEE24FF2489A59AA5BC
:1002E000059728F00894E11CF11C1AA619A6ED85C3
:1002F000FE85EF2B81F14D815E818F8198854817B6
:10030000590750F081E090E0EF85F8898E1B9F0B34
:10031000988B8F871E821D824D815E814F5F5F4F5C
:100320005E834D838F859889892BA9F0E985FA85AD
:100330004B855C85E417F50740F081E090E0821979
:100340009309282E392E1A86198689859A85019651
:100350009A87898702C022243324E981FA814B815C
:100360005C81E417F50750F081E090E0ED85FE85B3
:100370008E1B9F0B9E878D871A821982F5E04F1680
:10038000510440F049815A814F5F5F4F5A8349833E
:1003900044245524898D9A8DEFA1F8A58E279F2797
:1003A0008215930519F088B3886102C088B3877EEF
:1003B00088BBB09946C058DE28EC30E040E050E001
:1003C00000D13C872B8750DE24E130E040E050E054
:1003D000F8D038872F8348DE25E030E040E050E059
:1003E000F0D03C832B8340DE28EC30E040E050E04E
:1003F000E8D03E8B2D8B38DE24E130E040E050E049
:10040000E0D0622E732E30DE25E030E040E050E098
:10041000D8D0022F132F28DE28EC30E040E050E047
:10042000D0D0A22EB32E20DE24E130E040E050E018
:10043000C8D0C22ED32E18DE25E030E040E050E0D8
:10044000C0D0B1999ACE10DE20E931E040E050E012
:10045000B8D03C872B8708DE25E030E040E050E054
:10046000B0D038872F8300DE7C836B83FDDD20E9ED
:1004700031E040E050E0A5D03E8B2D8BF5DD25E04E
:1004800030E040E050E09DD0622E732EEDDD062F6F
:10049000172FEADD28EC30E040E050E092D0A22EA9
:1004A000B32EE2DD25E030E040E050E08AD0C22EFD
:1004B000D32EDADD262F372F60CE09C000000000D2
:1004C00000000000000000000000000001970097FD
:1004D000A9F7089557C024E630E0000000000000AE
:1004E000000000000000000000000000000000000C
:1004F00000000000000000000000000000000000FC
:1005000000000000000000000000000000000000EB
:1005100000000000000000000000000000000000DB
:1005200000000000000000000000000000000000CB
:1005300000000000000000000000000000000000BB
:1005400000000000000000000000000000000000AB
:10055000000000000000000000000000000000009B
:10056000000000000000000000000000000000008B
:10057000000000000000000000002150304009F0A1
:10058000ACCF0197009709F0A6CF0895FF27EE277B
:10059000BB27AA2760FF04C0A20FB31FE41FF51FEB
:1005A000220F331F441F551F9695879577956795A2
:1005B00089F70097760771F79F2F8E2F7B2F6A2F71
:1005C0000895A1E21A2EAA1BBB1BEA2FFB2F0DC018
:1005D000AA1FBB1FEE1FFF1FA217B307E407F507F3
:1005E00020F0A21BB30BE40BF50B661F771F881FCF
:1005F000991F1A9469F76095709580959095262FAC
:10060000372F482F592F6A2F7B2F8E2F9F2F08951A
:0406100001000000E5
:00000001FF
