:100000000EC028C027C026C025C024C023C022C0DF
:1000100021C020C01FC01EC01DC01CC01BC0112499
:100020001FBECFE5D2E0DEBFCDBF10E0A0E6B0E05E
:10003000EEE2F4E003C0C89531960D92A436B10704
:10004000D1F710E0A4E6B0E001C01D92A436B107DC
:10005000E1F72BC0D5CF0000000000000000000039
:1000600000000000000008952DE63EE446EC51E457
:1000700060916000709161008091620090916300D6
:1000800094D1675C7F4C8F4F9F4F6093600070935B
:1000900061008093620090936300682F792F882716
:1000A00099277F778070907008952F923F924F929A
:1000B0005F926F927F928F929F92AF92BF92CF92F8
:1000C000DF92EF92FF920F931F93CF93DF93CDB701
:1000D000DEB768970FB6F894DEBF0FBECDBF88E1DC
:1000E00087BB83E088BB20ED37E03E8B2D8B3FEF55
:1000F000C32ED12C4424552480E593EC9C8B8B8B10
:100100001A8A198AE8EBFBE0F88BEF87EE24FF24CC
:100110006624772420E63AEE3E872D871C861B86D0
:10012000FA87E98700E010E08824992480E197E2CB
:1001300098878F831E821D82FC83EB83188E1F8A13
:10014000AA24BB24E8E2F3E2FA83E98322243324DD
:100150002D893E894216530640F08FEF90E08C19AE
:100160009D09C82ED92E442455248F859889681658
:10017000790640F08FEF90E08E199F09E82EF92E56
:1001800066247724E985FA858E169F0640F08FEF66
:1001900090E0801B910B082F192F882499242B8124
:1001A0003C81A216B30650F08FEF90E0EF89F88DF6
:1001B0008E1B9F0B988F8F8BAA24BB2429893A8989
:1001C0008B899C892817390720F40894411C511CFD
:1001D0000CC04ADF22E330E040E050E001D13E8B2A
:1001E0002D8B442455241A8A198AEB85FC852D858C
:1001F0003E85E217F30720F40894611C711C0CC0C3
:1002000033DF24E630E040E050E0EAD0388B2F873F
:10021000662477241C861B868D819E81EF81F8855C
:100220008E179F0720F40894811C911C0CC01CDFC2
:1002300026E930E040E050E0D3D03A87298788248F
:1002400099241E821D8229813A812216330620F4C8
:100250000894A11CB11C0CC007DF28EC30E040E082
:1002600050E0BED03C832B83AA24BB242224332419
:10027000912F802F8E259F258C259D25EF89F88D28
:100280008E179F0719F088B3886102C088B3877EF4
:1002900088BBB0990CC0E8DE7C8B6B8BE5DE7E877B
:1002A0006D87E2DE78876F83DFDE7A836983298951
:1002B0003A892F5F3F4F3A8B298B8B859C8501961E
:1002C0009C878B87ED81FE813196FE83ED830894B8
:1002D000211C311C86B33CCF09C000000000000087
:1002E0000000000000000000000001970097A9F73F
:1002F000089557C024E630E0000000000000000030
:1003000000000000000000000000000000000000ED
:1003100000000000000000000000000000000000DD
:1003200000000000000000000000000000000000CD
:1003300000000000000000000000000000000000BD
:1003400000000000000000000000000000000000AD
:10035000000000000000000000000000000000009D
:10036000000000000000000000000000000000008D
:10037000000000000000000000000000000000007D
:10038000000000000000000000000000000000006D
:1003900000000000000000002150304009F0ACCF08
:1003A0000197009709F0A6CF0895FF27EE27BB27F6
:1003B000AA2760FF04C0A20FB31FE41FF51F220F7E
:1003C000331F441F551F969587957795679589F735
:1003D0000097760771F79F2F8E2F7B2F6A2F089536
:1003E000A1E21A2EAA1BBB1BEA2FFB2F0DC0AA1FCE
:1003F000BB1FEE1FFF1FA217B307E407F50720F08E
:10040000A21BB30BE40BF50B661F771F881F991F08
:100410001A9469F76095709580959095262F372FDF
:0E042000482F592F6A2F7B2F8E2F9F2F089564
:04042E0001000000C9
:00000001FF
