:100000000EC028C027C026C025C024C023C022C0DF
:1000100021C020C01FC01EC01DC01CC01BC0112499
:100020001FBECFE5D2E0DEBFCDBF10E0A0E6B0E05E
:10003000E2E6F5E003C0C89531960D92A437B1070A
:10004000D1F710E0A4E7B0E001C01D92A437B107DA
:10005000E1F72BC0D5CF0000000000000000000039
:10006000000000000000089529E13FE040E050E07A
:1000700060916000709161008091620090916300D6
:100080002ED265587F4F8F4F9F4F609360007093C3
:1000900061008093620090936300682F792F882716
:1000A00099277F778070907008952F923F924F929A
:1000B0005F926F927F928F929F92AF92BF92CF92F8
:1000C000DF92EF92FF920F931F93CF93DF93CDB701
:1000D000DEB7AF970FB6F894DEBF0FBECDBF88E195
:1000E00087BB83E088BBAC2FBD2F1196ECE6F0E018
:1000F00088E001900D928150E1F7AC2FBD2F199649
:10010000E4E6F0E088E001900D928150E1F7ACDF89
:1001100021E02FA7B1E02B2E8CE291E0A0E0B0E02F
:100120008BA79CA7ADA7BEA78FA398A7A9A7BAA77F
:1001300081E090E0A0E0B0E08BA39CA3ADA3BEA3C0
:10014000A1E04A2E512C612C712C91E09AA399A325
:1001500098A39F8F9E8F9D8F80ED97E0A0E0B0E0E9
:10016000898F9A8FAB8FBC8FF1E08F2E912CA12CB1
:10017000B12C8D8A9E8AAF8AB88EEFEF3E2E898A87
:100180009A8AAB8ABC8A74EFC72E71E0D72EE12C15
:10019000F12C89899A89AB89BC890996A11DB11D69
:1001A000898B9A8BAB8BBC8B9AA1992361F18BA124
:1001B0009CA1ADA1BEA10197A109B1098BA39CA3EC
:1001C000ADA3BEA30097A105B105E9F48BA59CA53D
:1001D000ADA5BEA50B96A11DB11D8BA79CA7ADA774
:1001E000BEA789559240A040B04008F01AA281E015
:1001F000FFA58F1B8FA78BA59CA5ADA5BEA58BA327
:100200009CA3ADA3BEA399A1992311F10894410821
:100210005108610871084114510461047104C1F46A
:100220008FA198A5A9A5BAA50D96A11DB11D8FA353
:1002300098A7A9A7BAA789559240A040B04008F056
:1002400019A281E08219282E4FA058A469A47AA48B
:10025000F8A1FF23F1F02E8D21502E8F222371F46F
:1002600069897A898B899C8928EC30E040E050E0EC
:1002700051D12E8F81E09FA5891B8FA70894C108BB
:10028000D108E108F108C114D104E104F10409F432
:1002900018A2AF8DAA23E9F0BD8DB150BD8FBB234D
:1002A00069F469897A898B899C8928EC30E040E07F
:1002B00050E030D12D8F81E08219282E0894C1089A
:1002C000D108E108F108C114D104E104F10409F4F2
:1002D0001F8E089481089108A108B1088114910427
:1002E000A104B10409F05CC08D899E89AF89B88DE5
:1002F0000197A109B1098D8B9E8BAF8BB88F0097A9
:10030000A105B10531F06AE0862E912CA12CB12C0B
:1003100047C0339498E0391609F43324232D33274A
:10032000AC2FBD2FA20FB31FFB2FEA2F9181F92F06
:10033000F170FAA3FB2FEA2F8185F82FF170F9A352
:10034000927098A382708F8F898D9A8DAB8DBC8DA2
:100350008D8B9E8BAF8BB88F8CE291E0A0E0B0E0EC
:100360008BA79CA7ADA7BEA78FA398A7A9A7BAA73D
:1003700081E090E0A0E0B0E08BA39CA3ADA3BEA37E
:1003800051E0452E512C612C712C4AE0842E912C89
:10039000A12CB12C38E8C32E33E1D32EE12CF12C63
:1003A0009FA5992311F0C39A01C0C398222011F090
:1003B000C49A01C0C498B09912C056DE2EE130E054
:1003C00040E050E0A7D0B52FA42F932F822F885163
:1003D0009C4FAF4FBF4F898F9A8FAB8FBC8FB19916
:1003E000D8CE00E010E040DEFD2FEC2FE00FF11F33
:1003F00061833ADEFD2FEC2FE00FF11F61870F5F65
:100400001F4F0830110509F4C4CEEDCF09C000001C
:100410000000000000000000000000000000019744
:100420000097A9F7089557C024E630E000000000C7
:1004300000000000000000000000000000000000BC
:1004400000000000000000000000000000000000AC
:10045000000000000000000000000000000000009C
:10046000000000000000000000000000000000008C
:10047000000000000000000000000000000000007C
:10048000000000000000000000000000000000006C
:10049000000000000000000000000000000000005C
:1004A000000000000000000000000000000000004C
:1004B000000000000000000000000000000000003C
:1004C000000000000000000000000000215030404B
:1004D00009F0ACCF0197009709F0A6CF0895FF2748
:1004E000EE27BB27AA2760FF04C0A20FB31FE41F9B
:1004F000F51F220F331F441F551F9695879577953B
:10050000679589F70097760771F79F2F8E2F7B2FBE
:100510006A2F0895A1E21A2EAA1BBB1BEA2FFB2FFC
:100520000DC0AA1FBB1FEE1FFF1FA217B307E407D2
:10053000F50720F0A21BB30BE40BF50B661F771F2A
:10054000881F991F1A9469F760957095809590950A
:10055000262F372F482F592F6A2F7B2F8E2F9F2F13
:020560000895FC
:10056200010000000001000101020301010002017B
:040572000100030180
:00000001FF
