:100000000EC020C01FC01EC01DC01CC01BC01AC017
:1000100019C018C017C016C015C014C013C01124D1
:100020001FBECFE5D2E0DEBFCDBF10E0A0E6B0E05E
:10003000E4E8F3E002C005900D92A436B107D9F7C9
:1000400034D09EC1DDCFCF93DF9300D000D0CDB7A9
:10005000DEB72DE63EE446EC51E46091600070911D
:10006000610080916200909163004FD1DC01CB016F
:10007000875C9F4CAF4FBF4F8093600090936100AF
:10008000A0936200B0936300CD01AA27BB279C0117
:10009000AD013F7744275527CA01B9010F900F9052
:1000A0000F900F90DF91CF910895CDB7DEB7A8974D
:1000B0000FB6F894DEBF0FBECDBF88E187BB83E0EB
:1000C00088BB1A86198628E233E23EA32DA3D12CE1
:1000D000C12C1E8A1D8A88EB9BE09CA38BA31E82E9
:1000E0001D8220E137E23AA329A380E593EC9A8FA1
:1000F000898F312C212C20ED37E03E872D8788EB2E
:100100009BE09C8F8B8F20E63AEE3E8F2D8F1C8AD2
:100110001B8A1A821982F12CE12C98A38F8F18A6C2
:100120001FA22FEF30E0388F2F8B10E000E01A8AEB
:10013000198A86E9482E512C612C712C98EC892E55
:10014000912CA12CB12C2F8D38A1E216F30650F082
:100150008FEF90E02B893C89821B930B9C8B8B8BC0
:10016000F12CE12C8BA19CA1C816D90650F02FEFE1
:1001700030E08D899E89281B390B3E8B2D8BD12C2D
:10018000C12C298D3A8D2216330608F08CC08FA120
:1001900098A5019698A78FA39FEF291A390A29815C
:1001A0003A818D8D9E8D0F5F1F4F2817390780F084
:1001B0004ADF69837A838B839C8324E630E040E0C6
:1001C00050E0BCD03C8F2B8F1A82198210E000E0E7
:1001D00029813A812F5F3F4F3A83298389A19AA1D0
:1001E0002D813E812817390708F06EC03FEFE31AD2
:1001F000F30A8D819E8101969E838D8329853A85A0
:100200008DA19EA12817390708F06DC09FEFC91A6C
:10021000D90A29853A852F5F3F4F3A8729878989EF
:100220009A892F89388D822793272B893C898227A9
:1002300093272D893E898217930709F463C088B3F9
:10024000886188BBB0990CC0FEDE7A8F698FFBDEB7
:100250007E8F6D8FF8DE7AA369A3F5DE7EA36DA392
:1002600086B38D859E852FA138A52817390750F0B4
:100270008FEF90E02F89388D821B930B988F8F8B97
:1002800018A61FA28B8D9C8D0817190708F45BCF49
:100290002FEF30E089899A89281B390B3A8B298BFB
:1002A00010E000E050CFCFDE6D877E878F87988B80
:1002B00022E330E040E050E041D03E872D87312CF2
:1002C000212C18A61FA268CFBEDE6D837E838F838C
:1002D0009887A301920132D038A32F8F1E821D82EE
:1002E000F12CE12C86CFAFDE69877A878B879C87DC
:1002F000A501940123D03CA32BA31A861986D12CE7
:10030000C12C87CF88B3877E9CCFEE27FF27AA27F3
:10031000BB2708C0A20FB31FE41FF51F220F331F16
:10032000441F551F969587957795679598F370406C
:10033000A9F7009799F7BD01CF010895A1E21A2E00
:10034000AA1BBB1BFD010DC0AA1FBB1FEE1FFF1F79
:10035000A217B307E407F50720F0A21BB30BE40BC9
:10036000F50B661F771F881F991F1A9469F7609510
:100370007095809590959B01AC01BD01CF010895CA
:04038000F894FFCF1F
:040384000100000074
:00000001FF
