:100000000EC029C028C027C026C025C024C023C0D8
:1000100022C021C020C01FC01EC01DC01CC0112492
:100020001FBECFE5D2E0DEBFCDBF10E0A0E6B0E05E
:10003000E8E3F3E003C0C89531960D92A038B1070C
:10004000D1F710E0A0E8B0E001C01D92A938B107D7
:10005000E1F771D070C1D4CFEF92FF920F931F934D
:100060000091680010916900602F712F88279927EF
:1000700020917700309178004427552741D1682F8F
:10008000792F992777FD9095892F262F372F7093F9
:10009000650060936400912F802F821B930B9093D7
:1000A000670080936600000F111F0E5F1F4F1093B3
:1000B000710000937000E0906A00F0906B00009176
:1000C000830010918400602F712F882799272E2D8F
:1000D0003F2D442755272E5F3F4F4F4F5F4F620FF5
:1000E000731F841F951F20916C0030916D00442771
:1000F00037FD4095542F04D1682F792F992777FD2C
:100100009095892F70938600609385000E0D1F1DBA
:10011000061B170B0E5F1F4F10938800009387007C
:10012000EF2CFF24F0927D00E0927C001F910F9154
:10013000FF90EF90089588E187BB87E088BB8CDF54
:10014000809160009091610001979093610080938D
:100150006000892B09F08DC080916200909163004E
:10016000909361008093600088B398E1892788BBF1
:1001700090E080918200882309F491E090938200BE
:10018000992329F0809164009091650004C08091CA
:100190006600909167009093630080936200809165
:1001A00081008823C9F080917000909171000A96B7
:1001B00090937100809370008091760081508093BD
:1001C0007600882349F484E68093760084E190E009
:1001D000909371008093700080917E008150809395
:1001E0007E00882309F045C08EE180937E00B0999F
:1001F00023C0209168003091690021503040309335
:100200006900209368002F5F3F4F80916A009091B2
:100210006B00029690936B0080936A00809164005B
:10022000909165000B9738F481E0809381003093C2
:1002300069002093680010DFB1991BC080916800AD
:100240009091690001969093690080936800809175
:100250006A0090916B00019790936B0080936A0005
:100260004E9731F48FE190E090936B0080936A0099
:10027000F3DE80916E0090916F00019790936F0074
:1002800080936E00892B61F48091700090917100D1
:1002900090936F0080936E0088B398E1892788BBA4
:1002A00080917200909173000197909373008093F6
:1002B0007200892B09F044CF8091740090917500F1
:1002C000909373008093720090E080918000882367
:1002D00009F491E090938000992329F080918500A2
:1002E0009091860004C0809187009091880090933F
:1002F00075008093740088B398E1892788BB20CF6C
:10030000FF27EE27BB27AA2760FF04C0A20FB31F59
:10031000E41FF51F220F331F441F551F9695879525
:100320007795679589F70097760771F79F2F8E2F3E
:080330007B2F6A2F0895FFCF17
:100338000100983A0A001027A302A302204E0100E8
:10034800D2070100D407016666010101010001001E
:00000001FF
