:100000000EC020C01FC01EC01DC01CC01BC01AC017
:1000100019C018C017C016C015C014C013C01124D1
:100020001FBECFE5D2E0DEBFCDBF10E0A0E6B0E05E
:10003000E2E5F2E002C005900D92A436B107D9F7CF
:1000400048D005C1DDCF0000000000000000000026
:100050000000000000000895CF93DF93EC0120978B
:1000600019F4DF91CF910895EEDF2197F8CFCF9368
:10007000DF9300D000D0CDB7DEB72DE63EE446ECEE
:1000800051E46091600070916100809162009091F4
:1000900063008ED0DC01CB01875C9F4CAF4FBF4F1C
:1000A0008093600090936100A0936200B09363001E
:1000B000CD01AA27BB279C01AD013F7744275527D7
:1000C000CA01B9010F900F900F900F90DF91CF915F
:1000D000089500D000D0CDB7DEB788E187BB83E0BC
:1000E00088BB10E004E188EC90E09A83898384EF78
:1000F000C82EDD24D394E12CF12C98EC492E512C00
:10010000612C712C28EEA22E23E0B22E88B38861D8
:1001100088BB89819A81A0DF88B3877E88BB89816B
:100120009A819ADF015031F489819A81C2969A832B
:1001300089830AE01A3039F5B0990CC089819A8117
:10014000BC0125D067E170E022D04196B50149D0CD
:100150009A838983B1990AC08ADF69837A838B8302
:100160009C83A301920151D03A83298316B3137063
:1001700061F47DDF69837A838B839C83A701960179
:1001800044D03A8329831F5FC1CF10E0FCCF002405
:10019000552704C0080E591F880F991F009729F092
:1001A00076956795B8F37105B9F7802D952F089569
:1001B000EE27FF27AA27BB2708C0A20FB31FE41F03
:1001C000F51F220F331F441F551F9695879577956E
:1001D000679598F37040A9F7009799F7BD01CF0193
:1001E0000895AA1BBB1B51E107C0AA1FBB1FA6177E
:1001F000B70710F0A61BB70B881F991F5A95A9F7D0
:1002000080959095BC01CD010895A1E21A2EAA1BFC
:10021000BB1BFD010DC0AA1FBB1FEE1FFF1FA217B6
:10022000B307E407F50720F0A21BB30BE40BF50BB3
:10023000661F771F881F991F1A9469F7609570953C
:10024000809590959B01AC01BD01CF010895F89474
:02025000FFCFDE
:0402520001000000A7
:00000001FF
