:100000000EC020C01FC01EC01DC01CC01BC01AC017
:1000100019C018C017C016C015C014C013C01124D1
:100020001FBECFE5D2E0DEBFCDBF10E0A0E6B0E05E
:10003000ECEFF1E002C005900D92A436B107D9F7BC
:1000400048D0DAC0DDCF0000000000000000000052
:100050000000000000000895CF93DF93EC0120978B
:1000600019F4DF91CF910895EEDF2197F8CFCF9368
:10007000DF9300D000D0CDB7DEB72DE63EE446ECEE
:1000800051E46091600070916100809162009091F4
:10009000630077D0DC01CB01875C9F4CAF4FBF4F33
:1000A0008093600090936100A0936200B09363001E
:1000B000CD01AA27BB279C01AD013F7744275527D7
:1000C000CA01B9010F900F900F900F90DF91CF915F
:1000D000089500D000D000D0CDB7DEB788E187BB4F
:1000E00083E088BB88E290E09E838D8388EC882E35
:1000F000912CA12CB12C88B3886188BBB8DF6983AF
:100100007A838B839C838D819E816C01F12CE12C01
:1001100069817A818B819C81A70196014BD0C901AD
:100120009BDF88B3877E88BBA2DF69837A838B835A
:100130009C83A70196013ED0C9018EDFB09908C00B
:100140008D819E818430910518F001979E838D8367
:10015000B19909C08D819E81803127E2920718F400
:1001600002969E838D8386B3837029F680DF698330
:100170007A838B839C83A50194011CD03E832D83BD
:10018000BACFEE27FF27AA27BB2708C0A20FB31FAD
:10019000E41FF51F220F331F441F551F96958795A7
:1001A0007795679598F37040A9F7009799F7BD0187
:1001B000CF010895A1E21A2EAA1BBB1BFD010DC0A1
:1001C000AA1FBB1FEE1FFF1FA217B307E407F50707
:1001D00020F0A21BB30BE40BF50B661F771F881FE3
:1001E000991F1A9469F760957095809590959B0179
:0C01F000AC01BD01CF010895F894FFCFD1
:0401FC0001000000FE
:00000001FF
