:100000000EC029C028C027C026C025C024C023C0D8
:1000100022C021C020C01FC01EC01DC01CC0112492
:100020001FBECFE5D2E0DEBFCDBF10E0A0E6B0E05E
:10003000E6EAF3E003C0C89531960D92A436B10705
:10004000D1F710E0A4E6B0E001C01D92A436B107DC
:10005000E1F702D0A7C1D4CF2F923F924F925F9287
:100060007F928F929F92AF92BF92CF92DF92EF9248
:10007000FF920F931F93CF93DF93CDB7DEB72697F1
:100080000FB6F894DEBF0FBECDBF88E187BB83E01B
:1000900088BB60EAE62E6FE0F62E772421E030E0A0
:1000A0003A83298351E0252E312C41E0442E512CF6
:1000B00031E0832E912C21E0A22EB12C91E0C92EAB
:1000C000D12C00EE11E08CE791E09E838D83A8E1B6
:1000D000B1E0E3E0F0E0FC83EB8362E070E041E05C
:1000E00050E00894C108D108C114D104E9F4952D59
:1000F000842D840F951FA817B90718F0282F392FC2
:1001000005C02A2F3B2F509541955F4F2115310592
:1001100029F4509541955F4F21E030E0D52CC42C57
:1001200083E07826422E532E0894A108B108A1142A
:10013000B104F9F4932D822D860F971F2D813E81F6
:100140002817390718F0282F392F05C02D813E8137
:10015000709561957F4F2115310529F47095619552
:100160007F4F21E030E0B32CA22C81E07826222EB4
:10017000332E0894810891088114910439F58981FE
:100180009A81EB81FC818E0F9F1F0817190718F0C9
:10019000282F392F09C0312F202F8B819C819095DA
:1001A00081959F4F9C838B832115310549F4EB8109
:1001B000FC81F095E195FF4FFC83EB8321E030E07B
:1001C00089809A8082E078263A8329830894E1081E
:1001D000F108E114F10489F5B09909C00E5F1F4FD1
:1001E0002D813E812E5F3F4F3E832D831296B19924
:1001F00020C011978D819E8101979E838D83015030
:1002000010404F5F5F4F6F5F7F4FEB81FC813196F6
:10021000FC83EB83B0990DC00D5F1F4F02969E8348
:100220008D8311963396FC83EB836E5F7F4F4F5F18
:100230005F4F80EAE82E8FE0F82E872D880F880F19
:10024000880F836088BB4DCF0000000000000000D5
:100250000000000000000000089529E13FE040E0B8
:1002600050E0609160007091610080916200909117
:1002700063007DD065587F4F8F4F9F4F6093600024
:10028000709361008093620090936300682F792FD0
:10029000882799277F7780709070089509C00000A3
:1002A00000000000000000000000000000000197B6
:1002B0000097A9F7089557C024E630E00000000039
:1002C000000000000000000000000000000000002E
:1002D000000000000000000000000000000000001E
:1002E000000000000000000000000000000000000E
:1002F00000000000000000000000000000000000FE
:1003000000000000000000000000000000000000ED
:1003100000000000000000000000000000000000DD
:1003200000000000000000000000000000000000CD
:1003300000000000000000000000000000000000BD
:1003400000000000000000000000000000000000AD
:1003500000000000000000000000000021503040BC
:1003600009F0ACCF0197009709F0A6CF0895FF27B9
:10037000EE27BB27AA2760FF04C0A20FB31FE41F0C
:10038000F51F220F331F441F551F969587957795AC
:10039000679589F70097760771F79F2F8E2F7B2F30
:0603A0006A2F0895FFCF53
:0403A6000100000052
:00000001FF
