:100000000EC020C01FC01EC01DC01CC01BC01AC017
:1000100019C018C017C016C015C014C013C01124D1
:100020001FBECFE5D2E0DEBFCDBF10E0A0E6B0E05E
:10003000EEEAF4E002C005900D92A437B107D9F7BB
:1000400034D033C2DDCFCF93DF9300D000D0CDB713
:10005000DEB729E13FE040E050E060916000709140
:1000600061008091620090916300E4D1DC01CB01DA
:1000700085589F4FAF4FBF4F8093600090936100B2
:10008000A0936200B0936300CD01AA27BB279C0117
:10009000AD013F7744275527CA01B9010F900F9052
:1000A0000F900F90DF91CF910895CDB7DEB7E6970F
:1000B0000FB6F894DEBF0FBECDBF88E187BB83E0EB
:1000C00088BB88E0E4E6F0E0DE01199601900D922D
:1000D0008A95E1F788E0ECE6F0E08E010F5F1F4FB4
:1000E000D80101900D928A95E1F7ADDF34EFC32E70
:1000F000DD24D394E12CF12C21E030E040E050E00D
:1001000029A73AA74BA75CA73FEF38A381E090E06F
:10011000A0E0B0E08DA39EA3AFA3B8A721E030E09C
:1001200040E050E02C8F3D8F4E8F5F8F80ED97E049
:10013000A0E0B0E08BAB9CABADABBEAB91E09CA3C1
:10014000A1E0ABA3B1E0BAABE1E0E9ABF1E0FAA327
:1001500029A3412C512C3201439481E090E0A0E08E
:10016000B0E0888F998FAA8FBB8F2CE231E040E0FE
:1001700050E02C8B3D8B4E8B5F8B5CE2852E99245F
:100180009394A12CB12C3324339431E03B8B222463
:100190002394AE014F5E5F4F5A8B498B89A59AA578
:1001A000ABA5BCA50996A11DB11D89A79AA7ABA7B0
:1001B000BCA799A1992339F1288D398D4A8D5B8D82
:1001C0002150310941095109288F398F4A8F5B8F9E
:1001D000232B242B252BB9F43BE0830E911CA11C6F
:1001E000B11C41E049A359E5851652E09506A104EA
:1001F000B10408F019A2822D9B89891B8B8B888EF4
:10020000998EAA8EBB8EAAA1AA2329F1B1E04B1A1E
:10021000510861087108F9F42C893D894E895F897C
:10022000235F3F4F4F4F5F4F2C8B3D8B4E8B5F8B30
:1002300031E03AA38C899D89AE89BF898935924086
:10024000A105B10508F01AA2F22DF3193F2E4C8832
:100250005D886E887F8829A92223D1F03BA1315087
:100260003BA331110EC069A57AA58BA59CA528ECEE
:1002700030E040E050E0F7D02BA3422D5B89451BD6
:100280004B8B81E0C81AD108E108F10809F419AADA
:100290009AA99923C9F0ACA1A150ACA3A1110DC09A
:1002A00069A57AA58BA59CA528EC30E040E050E03C
:1002B000DAD02CA3B22DB3193B2EE1E0CE1AD1082F
:1002C000E108F10809F41AAA2C8D3D8D4E8D5F8D41
:1002D00021503109410951092C8F3D8F4E8F5F8F7D
:1002E000232B242B252B09F062C08DA19EA1AFA149
:1002F000B8A50197A109B1098DA39EA3AFA3B8A783
:10030000892B8A2B8B2B09F088C098A19F5F98A31B
:10031000983009F418A2A8A18A2F90E0E9E0F0E053
:10032000EC0FFD1FE80FF91F2081B22FB170B9A3A8
:10033000E1E0F0E0EC0FFD1F8E0F9F1FDC018C91C0
:10034000B82FB170BAA3227029AB82708AAB2BA9E7
:100350003CA94DA95EA92DA33EA34FA358A788E8A9
:10036000C82E83E1D82EE12CF12C8AE090E0A0E0A9
:10037000B0E08C8F9D8FAE8FBF8F412C512C3201FE
:10038000439421E030E040E050E0288F398F4A8FDD
:100390005B8F8CE291E0A0E0B0E08C8B9D8BAE8B0C
:1003A000BF8B2CE2822E99249394A12CB12C3B89F3
:1003B0003323E1F1C39A3320D9F1C49AB09914C020
:1003C00042DE6DA77EA78FA798AB2EE130E040E01C
:1003D00050E049D0DA01C90188519C4FAF4FBF4F5F
:1003E0008BAB9CABADABBEABB199D8CE8E01075FEA
:1003F0001F4FDE011196BEA7ADA725DEF801619360
:100400008F0121DEADA5BEA56D93BEA7ADA7E9897D
:10041000FA89E017F10789F7C1CE2AE030E040E021
:1004200050E02C8F3D8F4E8F5F8FC1CFC398C3CFCD
:10043000C498C4CFEE27FF27AA27BB2708C0A20F66
:10044000B31FE41FF51F220F331F441F551F96953E
:1004500087957795679598F37040A9F7009799F776
:10046000BD01CF010895A1E21A2EAA1BBB1BFD01FD
:100470000DC0AA1FBB1FEE1FFF1FA217B307E40783
:10048000F50720F0A21BB30BE40BF50B661F771FDB
:10049000881F991F1A9469F76095709580959095BB
:0E04A0009B01AC01BD01CF010895F894FFCF80
:1004AE000100000001000201010003010001000132
:0404BE000102030133
:00000001FF
