:100000000EC020C01FC01EC01DC01CC01BC01AC017
:1000100019C018C017C016C015C014C013C01124D1
:100020001FBECFE5D2E0DEBFCDBF10E0A0E6B0E05E
:10003000E8E1F5E002C005900D92A436B107D9F7CA
:1000400055D168C2DDCF87B3886187BB83E88ABD9D
:1000500081E083BF81E580BF80E58CBD08959C0170
:100060002150310908F4089589EF90E00197F1F7E4
:1000700000C00000F5CF6F927F928F929F92AF9257
:10008000BF92CF92DF92EF92FF920F931F93CF9385
:10009000DF933C01D0E0C0E054E6852E912C0FE1C7
:1000A00010E06DE3E62EF12C73E0C72ED12CE2E3D5
:1000B000AE2EB12CC615D70579F4DF91CF911F91E3
:1000C0000F91FF90EF90DF90CF90BF90AF909F90F7
:1000D0008F907F906F900895B7D1B40139D10A976E
:1000E000C4F4B2D1B70134D19C012E513109C901F8
:1000F000880F991FB6012CD160587F4F20583F4F71
:1001000029BD6BBDA1D1B50123D1C296A8DF21962F
:10011000D1CF9AD1B8011CD19C012F503109E7CF22
:100120003F924F925F926F927F928F929F92AF9287
:10013000BF92CF92DF92EF92FF920F931F93CF93D4
:10014000DF933C01D0E0C0E0312C62E3862E912C9D
:1001500004E110E074E6E72EF12CE9E2CE2ED12C7A
:10016000FAE0AF2EB12CC615D70591F4DF91CF91EF
:100170001F910F91FF90EF90DF90CF90BF90AF90C5
:100180009F908F907F906F905F904F903F900895D9
:10019000CE01B401C9D0892B31F456D1B801D8D0E1
:1001A0005AE0352E380E50D1232D30E0B901660FBC
:1001B000771F6F5F7F4FCCD02C01421A530A44D176
:1001C000B701C6D0059734F43FD1B601C1D04497EA
:1001D000480E591EC20163E070E095D09C0197FF64
:1001E00002C02D5F3F4F35952795359527952C59A2
:1001F0003F4F2F3F310519F014F02FEF30E037FD5E
:1002000020E0C20188589F4F8F3F910519F014F0EC
:100210008FEF90E097FD80E089BD2BBD15D1B50132
:1002200097D044961CDF21969ECF5F926F927F926B
:100230008F929F92AF92BF92CF92DF92EF92FF92F6
:100240000F931F93CF93DF934C01FED064E170E0D6
:100250007FD0782ED0E0C0E005E110E046E9E42E42
:10026000F12C5FE1C52ED12C64E1A62EB12CC8156E
:10027000D90581F4DF91CF911F910F91FF90EF90FD
:10028000DF90CF90BF90AF909F908F907F906F90B6
:100290005F900895711018C0D7D0B70159D022E3EC
:1002A000522E580ED1D0B60153D0652C681ACCD03E
:1002B000B5014ED03AE0732E780E59BC6BBC84E683
:1002C00090E0CDDE2196D3CFBFD0B80141D098E2E7
:1002D000592E580E96EF980F97FF02C097EF980F80
:1002E000959582E3682E690E7A94E7CFACDE88EEAE
:1002F00093E09BDF88EB9BE0BEDE88E592E010DFB9
:1003000088EB9BE0F6CF0024552704C0080E591F48
:10031000880F991F009729F076956795B8F37105B6
:10032000B9F7802D952F0895AA1BBB1B51E107C07B
:10033000AA1FBB1FA617B70710F0A61BB70B881F75
:10034000991F5A95A9F780959095BC01CD01089504
:1003500097FB072E16F4009406D077FD08D0E4DF53
:1003600007FC05D03EF4909581959F4F08957095B8
:1003700061957F4F0895CF92DF92EF92FF92CF93D6
:10038000DF93CDB7DEB72A970FB6F894DEBF0FBE66
:10039000CDBF89879A87A985BA858D919D910D904A
:1003A000BC91A02D89839A83AB83BC83892B8A2B34
:1003B0008B2B41F484E299EDABE5B7E089839A8316
:1003C000AB83BC8369817A818B819C812DE133EF82
:1003D00041E050E061D02D833E834F83588769838D
:1003E0007A838B839C8327EA31E440E050E03BD062
:1003F0006B017C012CEE34EF4FEF5FEF6D817E815E
:100400008F81988530D0DC01CB018C0D9D1DAE1DF8
:10041000BF1DB7FF03C00197A109B048E985FA8560
:1004200080839183A283B3839F772A960FB6F89433
:10043000DEBF0FBECDBFDF91CF91FF90EF90DF9079
:10044000CF90089598DF089580E690E094DF0895B6
:10045000B0E0A0E08093600090936100A093620000
:10046000B09363000895EE27FF27AA27BB2708C093
:10047000A20FB31FE41FF51F220F331F441F551F88
:10048000969587957795679598F37040A9F70097AB
:1004900099F7BD01CF010895052E97FB16F400943E
:1004A0000FD057FD05D014D007FC02D046F408C089
:1004B00050954095309521953F4F4F4F5F4F089590
:1004C00090958095709561957F4F8F4F9F4F0895C0
:1004D000A1E21A2EAA1BBB1BFD010DC0AA1FBB1F48
:1004E000EE1FFF1FA217B307E407F50720F0A21BBA
:1004F000B30BE40BF50B661F771F881F991F1A9427
:1005000069F760957095809590959B01AC01BD0150
:08051000CF010895F894FFCF1C
:0405180001000000DE
:00000001FF
