:100000000EC028C027C026C025C024C023C022C0DF
:1000100021C020C01FC01EC01DC01CC01BC0112499
:100020001FBECFE5D2E0DEBFCDBF10E0A0E6B0E05E
:10003000E6E0F3E003C0C89531960D92A436B1070F
:10004000D1F710E0A4E6B0E001C01D92A436B107DC
:10005000E1F794C0D5CF00000000000000000000D0
:10006000000000000000089509C00000000000002A
:100070000000000000000000000001970097A9F7B1
:1000800008952DE63EE446EC51E4609160007091E5
:1000900061008091620090916300DDD0675C7F4CCD
:1000A0008F4F9F4F60936000709361008093620058
:1000B00090936300682F792F882799277F77807026
:1000C0009070089557C024E630E000000000000062
:1000D0000000000000000000000000000000000020
:1000E0000000000000000000000000000000000010
:1000F0000000000000000000000000000000000000
:1001000000000000000000000000000000000000EF
:1001100000000000000000000000000000000000DF
:1001200000000000000000000000000000000000CF
:1001300000000000000000000000000000000000BF
:1001400000000000000000000000000000000000AF
:10015000000000000000000000000000000000009F
:10016000000000000000000000002150304009F0B5
:10017000ACCF0197009709F0A6CF08951F9388E1AF
:1001800087BB83E088BB28EC30E014E140E088B313
:10019000886188BB932F822F09C0000000000000F7
:1001A0000000000000000000000001970097A9F780
:1001B00088B3877E88BB932F822F09C00000000080
:1001C0000000000000000000000000000197009700
:1001D000A9F7115019F42E5C3F4F1AE04A3039F557
:1001E000B09910C0932F822F67E170E022D0682F62
:1001F000792F932F822F1DD0419668EE73E046D061
:10020000282F392FB19906C03CDF28EC30E040E0C0
:1002100050E052D086B3992783709070892B31F4C7
:1002200030DF24EF31E040E050E046D040E04F5F67
:10023000AECF5527002480FF02C0060E571F660F61
:10024000771F6115710521F096958795009799F7AD
:10025000952F802D0895FF27EE27BB27AA2760FF43
:1002600004C0A20FB31FE41FF51F220F331F441F4A
:10027000551F969587957795679589F70097760727
:1002800071F79F2F8E2F7B2F6A2F0895AA1BBB1B00
:1002900051E107C0AA1FBB1FA617B70710F0A61B86
:1002A000B70B881F991F5A95A9F780959095682FCD
:1002B000792F8A2F9B2F0895A1E21A2EAA1BBB1B10
:1002C000EA2FFB2F0DC0AA1FBB1FEE1FFF1FA21797
:1002D000B307E407F50720F0A21BB30BE40BF50B03
:1002E000661F771F881F991F1A9469F7609570958C
:1002F00080959095262F372F482F592F6A2F7B2FC7
:060300008E2F9F2F0895CF
:0403060001000000F2
:00000001FF
