:100000000EC028C027C026C025C024C023C022C0DF
:1000100021C020C01FC01EC01DC01CC01BC0112499
:100020001FBECFE5D2E0DEBFCDBF10E0A0E6B0E05E
:10003000EAEDF3E003C0C89531960D92AE36B107F4
:10004000D1F710E0AEE6B0E001C01D92AB37B107CA
:10005000E1F72BC0D5CF0000000000000000000039
:1000600000000000000008952DE63EE446EC51E457
:1000700060916A0070916B0080916C0090916D00AE
:1000800054D1675C7F4C8F4F9F4F60936A00709391
:100090006B0080936C0090936D00682F792F8827F8
:1000A00099277F77807090700895EF92FF920F9359
:1000B0001F9388E187BB87E088BB10917A001130DD
:1000C00059F410927A00D0DF61707070672B09F4D8
:1000D000A1C010937A009EC010927A00C5DF6170B3
:1000E0007070672B09F496C0BFDF61707070672B6A
:1000F00009F490C081E080937A008CC0B0990FC061
:100100002091600030916100932F822F6EE170E0AA
:1001100027D1260F371F3093610020936000B199DB
:1001200013C02091600030916100932F822F6EE107
:1001300070E016D1261B370B3093610020936000CE
:10014000F0926300E0926200B29914C08DDF2091BA
:1001500064003091650040916600509167002A501C
:1001600030404040504012D1665F7F4F7093630033
:1001700060936200809171009091720020917700ED
:100180003091780009C0000000000000000000006D
:10019000000000000000019728173907A0F3209104
:1001A0006F00309170003093720020937100809145
:1001B0006200909163002817390758F480916E000F
:1001C000882319F088B3886102C088B3877E88BB12
:1001D0000DC080917A00882349F08091640090914D
:1001E000650001969093700080936F0080916F007E
:1001F000909170002091600030916100820F931FF8
:100200009093700080936F0081E090916E00891B45
:1002100080936E00E0906400F090650000916600AD
:100220001091670080916F0090917000AA27BB2702
:10023000E816F9060A071B0708F060CF80917300E3
:10024000909174009093700080936F00809168008B
:100250008F5F8093680031CF57C024E630E0000004
:10026000000000000000000000000000000000008E
:10027000000000000000000000000000000000007E
:10028000000000000000000000000000000000006E
:10029000000000000000000000000000000000005E
:1002A000000000000000000000000000000000004E
:1002B000000000000000000000000000000000003E
:1002C000000000000000000000000000000000002E
:1002D000000000000000000000000000000000001E
:1002E000000000000000000000000000000000000E
:1002F000000000000000000000000000000021508D
:10030000304009F0ACCF0197009709F0A6CF0895CF
:1003100009C0000000000000000000000000000014
:10032000000001970097A9F70895FF27EE27BB2744
:10033000AA2760FF04C0A20FB31FE41FF51F220FFE
:10034000331F441F551F969587957795679589F7B5
:100350000097760771F79F2F8E2F7B2F6A2F0895B6
:10036000AA1BBB1B51E107C0AA1FBB1FA617B707DB
:1003700010F0A61BB70B881F991F5A95A9F78095F7
:100380009095682F792F8A2F9B2F0895A1E21A2E1E
:10039000AA1BBB1BEA2FFB2F0DC0AA1FBB1FEE1F02
:1003A000FF1FA217B307E407F50720F0A21BB30B4A
:1003B000E40BF50B661F771F881F991F1A9469F7C6
:1003C0006095709580959095262F372F482F592F3F
:0A03D0006A2F7B2F8E2F9F2F0895B8
:0E03DA001027204E204E0000010101000000FF
:00000001FF
