:100000000EC028C027C026C025C024C023C022C0DF
:1000100021C020C01FC01EC01DC01CC01BC0112499
:100020001FBECFE5D2E0DEBFCDBF10E0A0E6B0E05E
:10003000E6EBF2E003C0C89531960D92A436B10705
:10004000D1F710E0A4E6B0E001C01D92A436B107DC
:10005000E1F794C0D5CF00000000000000000000D0
:10006000000000000000089509C00000000000002A
:100070000000000000000000000001970097A9F7B1
:1000800008952DE63EE446EC51E4609160007091E5
:1000900061008091620090916300CBD0675C7F4CDF
:1000A0008F4F9F4F60936000709361008093620058
:1000B00090936300682F792F882799277F77807026
:1000C0009070089557C024E630E000000000000062
:1000D0000000000000000000000000000000000020
:1000E0000000000000000000000000000000000010
:1000F0000000000000000000000000000000000000
:1001000000000000000000000000000000000000EF
:1001100000000000000000000000000000000000DF
:1001200000000000000000000000000000000000CF
:1001300000000000000000000000000000000000BF
:1001400000000000000000000000000000000000AF
:10015000000000000000000000000000000000009F
:10016000000000000000000000002150304009F0B5
:10017000ACCF0197009709F0A6CF0895EF92FF92B8
:100180000F931F93CF93DF9388E187BB83E088BBF6
:10019000C8E2D0E088B3886188BB73DFEC2EFD2E07
:1001A00000271127512F402F3F2D2E2D5DD00AC043
:1001B000000000000000000000000000000000003F
:1001C000215030402115310599F788B3877E88BBCF
:1001D00058DF512F402F3F2D2E2D46D00AC0000052
:1001E000000000000000000000000000000021509E
:1001F00030402115310599F7B09904C0C430D105BC
:1002000008F02197B19905C087E2C031D80708F4FA
:10021000229686B3992783709070892B09F0BACF04
:1002200030DF28EC30E040E050E01ED0D32FC22F6A
:10023000B1CFFF27EE27BB27AA2760FF04C0A20F7C
:10024000B31FE41FF51F220F331F441F551F969540
:1002500087957795679589F70097760771F79F2FB0
:100260008E2F7B2F6A2F0895A1E21A2EAA1BBB1B8B
:10027000EA2FFB2F0DC0AA1FBB1FEE1FFF1FA217E7
:10028000B307E407F50720F0A21BB30BE40BF50B53
:10029000661F771F881F991F1A9469F760957095DC
:1002A00080959095262F372F482F592F6A2F7B2F17
:0602B0008E2F9F2F089520
:0402B6000100000043
:00000001FF
