:100000000EC029C028C027C026C025C024C023C0D8
:1000100022C021C020C01FC01EC01DC01CC0112492
:100020001FBECFE5D2E0DEBFCDBF10E0A0E6B0E05E
:10003000EAEAF3E003C0C89531960D92A436B10701
:10004000D1F710E0A4E6B0E001C01D92A436B107DC
:10005000E1F795D0A9C1D4CF000000000000000056
:100060000000000000000000089509C0000000002A
:100070000000000000000000000000000197009751
:10008000A9F708952DE63EE446EC51E46091600046
:1000900070916100809162009091630027D1675C4C
:1000A0007F4C8F4F9F4F60936000709361008093EF
:1000B000620090936300682F792F882799277F77B4
:1000C00080709070089557C024E630E00000000072
:1000D0000000000000000000000000000000000020
:1000E0000000000000000000000000000000000010
:1000F0000000000000000000000000000000000000
:1001000000000000000000000000000000000000EF
:1001100000000000000000000000000000000000DF
:1001200000000000000000000000000000000000CF
:1001300000000000000000000000000000000000BF
:1001400000000000000000000000000000000000AF
:10015000000000000000000000000000000000009F
:1001600000000000000000000000000021503040AE
:1001700009F0ACCF0197009709F0A6CF0895A8E049
:10018000B0E0E4ECF0E0F4C088E187BB83E088BB3A
:1001900078EC272E312C412C512C64EF662E61E037
:1001A000762E812C912C54E1A52EB12CC12CD12C72
:1001B0004AE0E42EF12C012D112D8CE697E0A0E011
:1001C000B0E08D839E83AF83B88788EE93E0A0E094
:1001D000B0E089839A83AB83BC83C39AC498972D7C
:1001E000862D09C000000000000000000000000093
:1001F0000000000001970097A9F7C49AC398932DB7
:10020000822D09C000000000000000000000000076
:100210000000000001970097A9F72A183B084C0836
:100220005D089AE0291631044104510420F42D8020
:100230003E804F8058846E0C7F1C801E911E8981E9
:100240009A81AB81BC8186159705A805B90528F46C
:100250003AE0632E712C812C912CB0991EC012DFD4
:1002600020EA3FE040E050E05CD0A22EB32EC42E46
:10027000D52E0894A11CB11CC11CD11C03DF20EA9F
:100280003FE040E050E04DD0E22EF32E042F152F3A
:100290000894E11CF11C011D111DB1999ECFF2DEE5
:1002A00028EC30E040E050E03CD02D5F3F4F4F4F16
:1002B0005F4F9D2D8C2D7B2D6A2D18D06D837E83F5
:1002C0008F839887DFDE28EC30E040E050E029D0D3
:1002D0002D5F3F4F4F4F5F4F912F802F7F2D6E2D02
:1002E00005D069837A838B839C8377CFFF27EE27A2
:1002F000BB27AA2760FF04C0A20FB31FE41FF51F8E
:10030000220F331F441F551F969587957795679544
:1003100089F70097760771F79F2F8E2F7B2F6A2F13
:100320000895A1E21A2EAA1BBB1BEA2FFB2F0DC0BA
:10033000AA1FBB1FEE1FFF1FA217B307E407F50795
:1003400020F0A21BB30BE40BF50B661F771F881F71
:10035000991F1A9469F76095709580959095262F4E
:10036000372F482F592F6A2F7B2F8E2F9F2F0895BD
:100370002F923F924F925F926F927F928F929F92B5
:10038000AF92BF92CF92DF92EF92FF920F931F93A3
:10039000CF93DF93CDB7DEB7CA1BDB0B0FB6F89454
:0A03A000DEBF0FBECDBF0994FFCFF2
:0403AA00010000004E
:00000001FF
