:100000000EC028C027C026C025C024C023C022C0DF
:1000100021C020C01FC01EC01DC01CC01BC0112499
:100020001FBECFE5D2E0DEBFCDBF10E0A0E6B0E05E
:10003000EAE1F7E002C005900D92A43AB107D9F7C2
:1000400020E0A4EAB0E001C01D92AC3AB207E1F7AB
:1000500048D061C3D5CF00000000000000000000C0
:100060000000000000000895CF93DF93EC0120977B
:1000700019F4DF91CF910895EEDF2197F8CFCF9358
:10008000DF9300D000D0CDB7DEB72DE63EE446ECDE
:1000900051E46091600070916100809162009091E4
:1000A000630085D1DC01CB01875C9F4CAF4FBF4F14
:1000B0008093600090936100A0936200B09363000E
:1000C000CD01AA27BB279C01AD013F7744275527C7
:1000D000CA01B9010F900F900F900F90DF91CF914F
:1000E000089500D000D000D00F92CDB7DEB788E1E0
:1000F00087BB87E088BB11E06CEDC62E65E0D62E8D
:10010000E12CF12C79E0872E912CA12CB12CE0ED83
:100110004E2EE7E05E2E612C712C2091A900E22F7B
:10012000F0E0EC59FF4F3081832F90E09A83898370
:10013000FC01EE0FFF1FE459FF4F4081518170E039
:1001400060E08091A5009091A600A091A700B091D9
:10015000A80084179507A607B70708F0DFC0332368
:1001600031F02091A400912F921B9093A4008981DB
:100170009A81880F991F880F991FFC01E058FF4F43
:1001800020917C0030917D0040917E0050917F0055
:10019000608171818281938153D269837A838B8359
:1001A0009C8369817A818B819C81A5D1CB015CDFA5
:1001B0008091A400882309F4C2C088B3886188BBF9
:1001C0008091A5009091A600A091A700B091A800F1
:1001D0000196A11DB11D8093A5009093A600A09348
:1001E000A700B093A800B0992DC020E030E048E40B
:1001F00052E460917C0070917D0080917E0090912E
:100200007F0011D1362E072F8F839D8320E030E4AD
:100210004CE956E469837A838B839C8369817A8174
:100220008B819C8109D218160CF48CC0832D902FE1
:10023000AF81BD8180937C0090937D00A0937E0070
:10024000B0937F00B1992CC020E030E048E452E444
:1002500060917C0070917D0080917E0090917F0084
:10026000E1D0362E072F8F839D8320E030E040E2DF
:1002700051E469837A838B839C8369817A818B8142
:100280009C8135D187FD63C0832D902FAF81BD81C7
:1002900080937C0090937D00A0937E00B0937F00BC
:1002A000B2993BCF1092AB00EADE60FF55C0E7DEAB
:1002B000A501940195D0E091AB00F0E0EC59FF4F1F
:1002C00060836093AA00DBDE69837A838B839C83DF
:1002D000E091AB008E2F90E0880F991F84599F4FBB
:1002E0009E838D8369817A818B819C81A301920198
:1002F00077D069837A838B839C8389819A818C50A0
:100300009E4FED81FE81918380838091AB008F5F52
:100310008093AB00883008F000CFC6CF1092A500C4
:100320001092A6001092A7001092A8002F5F28300C
:1003300018F42093A9003CCF1092A90039CF88B3BC
:10034000877E3DCF80E090E4ACE9B6E473CF80E0F7
:1003500090E0A0E2B1E49CCF92DEE091AB00F0E04F
:10036000EC59FF4F60FF21C08091AA00808387DE97
:1003700069837A838B839C83F091AB008F2F90E00D
:10038000880F991F84599F4F9E838D8369817A813D
:100390008B819C81A701960123D069837A838B830B
:1003A0009C8389819A810A96ACCF1082E0CFEE2798
:1003B000FF27AA27BB2708C0A20FB31FE41FF51F02
:1003C000220F331F441F551F969587957795679584
:1003D00098F37040A9F7009799F7BD01CF010895F0
:1003E000A1E21A2EAA1BBB1BFD010DC0AA1FBB1F39
:1003F000EE1FFF1FA217B307E407F50720F0A21BAB
:10040000B30BE40BF50B661F771F881F991F1A9417
:1004100069F760957095809590959B01AC01BD0141
:10042000CF0108955058BB27AA270ED0CBC0BCD00F
:1004300030F0C1D020F031F49F3F11F41EF4B1C070
:100440000EF4E095E7FBA7C0E92FCDD080F3BA17F3
:10045000620773078407950718F071F49EF5E5C0ED
:100460000EF4E0950B2EBA2FA02D0B01B9019001CF
:100470000C01CA01A0011124FF27591B99F0593F13
:1004800050F4503E68F11A16F040A22F232F342F5B
:100490004427585FF3CF469537952795A795F040A9
:1004A0005395C9F77EF41F16BA0B620B730B840BBE
:1004B000BAF09150A1F0FF0FBB1F661F771F881F76
:1004C000C2F70EC0BA0F621F731F841F48F48795CE
:1004D00077956795B795F7959E3F08F0B3CF9395BD
:1004E000880F08F09927EE0F9795879508952FD0DC
:1004F00008F481E008957FD088F09F5790F0B92FDD
:100500009927B751A0F0D1F0660F771F881F991F68
:100510001AF0BA95C9F712C0B13081F086D0B1E0B7
:10052000089583C0672F782F8827B85F39F0B93FC7
:10053000CCF3869577956795B395D9F73EF490956A
:100540008095709561957F4F8F4F9F4F0895990FBC
:100550000008550FAA0BE0E8FEEF16161706E8078D
:10056000F907C0F012161306E407F50798F0621BAE
:10057000730B840B950B39F40A2661F0232B242B83
:10058000252B21F408950A2609F4A140A6958FEFA2
:10059000811D811D089597F99F6780E870E060E0F4
:1005A00008959FEF80EC089500240A94161617060C
:1005B00018060906089500240A9412161306140654
:1005C00005060895092E0394000C11F4882352F0B7
:1005D000BB0F40F4BF2B11F460FF04C06F5F7F4F6F
:1005E0008F4F9F4F089557FD9058440F551F59F056
:1005F0005F3F71F04795880F97FB991F61F09F3F10
:1006000079F087950895121613061406551FF2CF38
:100610004695F1DF08C0161617061806991FF1CF88
:1006200086957105610508940895E894BB276627AF
:100630007727CB0197F908958ADF08F48FEF0895A3
:100640000AD0C0CFB1DF28F0B6DF18F0952309F04B
:10065000A2CFA7CFEBCFC7DFA8F39923D9F35523B8
:10066000C9F3950F50E0551FAA27EE27FF27BB2798
:1006700000240894679520F4E20FF31FB41F0A1EAC
:10068000220F331F441FAA1F6695A9F7779530F4F0
:10069000F30FB41F0A1E121E08F46395330F441F94
:1006A000AA1F221F769599F7879520F4B40F0A1E8A
:1006B000121E631F440FAA1F221F331F8695A9F71E
:1006C000862F712D602D11249F5750408AF0E1F044
:1006D00088234AF0EE0FFF1FBB1F661F771F881F7E
:1006E00091505040A9F79E3F510570F054CF9ECFD6
:1006F0005F3FECF3983EDCF3869577956795B79569
:10070000F795E7959F5FC1F7FE2B880F911D969592
:0A071000879597F90895F894FFCF3C
:10071A00010000000301040000050002E803640070
:10072A00F401E8038403E803F401E8030000484302
:10073A000000803F0000803F4C8E633FC555553F07
:10074A000000403FE3AA2A3F0000203F253B0E3F1E
:04075A000000003F5C
:00000001FF
